:020000040800F2
:10000000000002208D4C0008DD4C0008DD4C00088B
:10001000DD4C0008DD4C0008DD4C0008000000004D
:10002000000000000000000000000000DD4C00089F
:10003000DD4C000800000000DD4C000839490008D4
:10004000DD4C0008DD4C0008DD4C0008DD4C0008EC
:10005000DD4C0008DD4C000845490008DD4C000877
:10006000DD4C0008DD4C0008DD4C0008DD4C0008CC
:10007000DD4C0008DD4C0008DD4C0008DD4C0008BC
:10008000DD4C0008DD4C0008DD4C0008DD4C0008AC
:10009000DD4C0008DD4C0008DD4C0008DD4C00089C
:1000A000DD4C0008DD4C0008DD4C0008DD4C00088C
:1000B000DD4C0008DD4C0008DD4C0008DD4C00087C
:1000C000DD4C0008DD4C0008DD4C0008DD4C00086C
:1000D000DD4C0008DD4C0008DD4C0008DD4C00085C
:1000E000DD4C0008DD4C0008DD4C0008DD4C00084C
:1000F000DD4C0008DD4C0008DD4C0008DD4C00083C
:10010000DD4C0008DD4C0008DD4C0008DD4C00082B
:10011000DD4C0008DD4C0008DD4C0008DD4C00081B
:10012000DD4C0008DD4C0008DD4C0008DD4C00080B
:10013000DD4C0008DD4C0008DD4C0008DD4C0008FB
:10014000DD4C0008DD4C0008DD4C0008514900087A
:10015000DD4C0008DD4C0008DD4C0008DD4C0008DB
:10016000DD4C0008DD4C0008DD4C0008DD4C0008CB
:10017000DD4C0008DD4C0008DD4C000800000000EC
:08018000DD4C0008DD4C000815
:1001900010B5054C237833B9044B13B10448AFF3C1
:1001A00000800123237010BD90000020000000009B
:1001B0007C55000808B5034B1BB103490348AFF356
:1001C000008008BD00000000940000207C5500085D
:1001D00053B94AB9002908BF00281CBF4FF0FF31AE
:1001E0004FF0FF3000F072B9ADF1080C6DE904CEAC
:1001F00000F006F8DDF804E0DDE9022304B0704702
:100200002DE9F047089E04468846002B4BD18A42D0
:10021000154667D9B2FA82F24AB1C2F1200701FA53
:1002200002F320FA07F7954047EA030894404FEAA3
:10023000154E230CB8FBFEF71FFA85FC0EFB178842
:1002400043EA084307FB0CF1994209D9EB1807F17F
:10025000FF3080F01B81994240F21881023F2B440D
:100260005B1AA4B2B3FBFEF00EFB103344EA034466
:1002700000FB0CFCA44509D92C1900F1FF3380F0D8
:100280000781A44540F2048102382C4440EA07402B
:10029000A4EB0C0400271EB1D4400023C6E90043A0
:1002A0003946BDE8F0878B4209D9002E00F0EB807B
:1002B0000027C6E9000138463946BDE8F087B3FAA1
:1002C00083F7002F47D18B4202D3824200F2FA809B
:1002D000841A61EB030301209846002EE0D0C6E9A2
:1002E0000048DDE702B9FFDEB2FA82F2002A40F0F0
:1002F0008F80491B4FEA154E1FFA85F80127B1FB85
:10030000FEFC230C0EFB1C1143EA014308FB0CF11D
:10031000994207D9EB180CF1FF3002D2994200F252
:10032000CD808446591AA3B2B1FBFEF00EFB101427
:1003300043EA044408FB00F8A04507D92C1900F152
:10034000FF3302D2A04500F2B6801846A4EB0804A1
:1003500040EA0C409FE7C7F1200CBB4022FA0CFE9C
:100360004EEA030E01FA07F420FA0CF521FA0CF319
:100370004FEA1E482543B3FBF8F92C0C08FB193350
:100380001FFA8EFA44EA034309FB0AF49C4202FA7C
:1003900007F200FA07F10BD91EEB030309F1FF3056
:1003A00080F087809C4240F28480A9F10209734466
:1003B0001B1BADB2B3FBF8F008FB103345EA034456
:1003C00000FB0AFAA24508D91EEB040400F1FF3332
:1003D0006BD2A24569D90238744440EA0940A0FBB7
:1003E0000289A4EB0A044C45C2464B4654D351D073
:1003F000002E69D0B1EB0A0564EB030404FA0CFC8F
:10040000FD40FC404CEA0505C6E90054002747E7DB
:10041000C2F1200320FA03F7954001FA02F021FA15
:1004200003F34FEA154E3843010CB3FBFEF71FFAF6
:1004300085F80EFB173341EA034107FB08F38B42B3
:1004400004FA02F407D9691807F1FF3C2FD28B4256
:100450002DD9023F2944CB1A81B2B3FBFEF00EFB2B
:10046000103341EA034100FB08F38B4207D96918B6
:1004700000F1FF3C17D28B4215D902382944C91A22
:1004800040EA07473BE73746304609E70746E7E6D5
:100490001846FBE64145ABD2B8EB020A69EB0E0207
:1004A00001381346A4E76046E9E7184695E7674632
:1004B000D1E781467CE702382C4447E7ACF1020CD7
:1004C0002B442FE7384608E73746E9E6704700BF78
:1004D00001F0FF01102A2BDB10F0070F08D010F8F5
:1004E000013B013A8B422DD010F0070F42B3F6D1F9
:1004F000F0B441EA012141EA014122F007047FF012
:1005000000070023F0E80256083C85EA010586EA68
:10051000010685FA47F5A3FA87F586FA47F6A5FAA4
:1005200087F68EB9EED1F0BC01F0FF0102F00702B0
:1005300032B110F8013B013A83EA010313B1F8D15B
:100540000020704701387047002D06BF354603383C
:10055000073815F0010F07D1013015F4807F02BF75
:10056000013015F4C03F0130F0BC0138704700BFC6
:1005700010B504460E4B18784FF47A73B3FBF0F3C2
:100580000C4A1068B0FBF3F000F0A8F868B90F2C23
:1005900001D901200AE0002221464FF0FF3000F08F
:1005A0005DF8034B5C60002000E0012010BD00BF3F
:1005B000000000202800002008B50B4B1A6842F408
:1005C00000721A601A6842F480621A601A6842F473
:1005D00080721A60032000F02FF80020FFF7C8FF98
:1005E00004F0B0F8002008BD003C0240034A116846
:1005F000034B1B780B441360704700BFBC00002006
:1006000000000020014B1868704700BFBC000020AC
:1006100038B50446FFF7F6FF0546B4F1FF3F02D0B8
:10062000044B1B781C44FFF7EDFF401BA042FAD39C
:1006300038BD00BF00000020074AD36823F4E06300
:100640001B041B0C000200F4E060184340F0BF6084
:1006500040F40030D060704700ED00E030B4174B3C
:10066000DB68C3F30223C3F10704042C28BF04246E
:100670001D1D062D18D9033B4FF0FF3505FA04F474
:1006800021EA0401994005FA03F322EA030319431E
:1006900000280BDB0901C9B200F1604000F56140A0
:1006A00080F8001330BC70470023E5E700F00F002E
:1006B0000901C9B2024B1954F4E700BF00ED00E094
:1006C00014ED00E000F01F02400901239340024AAC
:1006D00042F82030704700BF00E100E00138B0F17F
:1006E000807F0AD2064B5860064AF02182F8231018
:1006F0000020986007221A6070470120704700BFF1
:1007000010E000E000ED00E0042805D0054A136881
:1007100023F0040313607047024A136843F0040394
:100720001360704710E000E0704708B5FFF7FCFF6A
:1007300008BD000000230F2B00F2D780F0B482B078
:1007400039E0072200E00022B2403A430234674E0B
:1007500046F82420664A1468EA4302EA04064F6811
:1007600017F4803F01D045EA0406614C26606468B6
:1007700002EA04064F6817F4003F01D045EA040678
:100780005B4C6660A46802EA04064F6817F4801F99
:1007900001D045EA0406564CA660E46822404E6843
:1007A00016F4001F01D045EA0402514CE260013307
:1007B0000F2B00F2978001229A400C6804EA020590
:1007C000AA42F4D14C68022C01D0122C10D1DE08C0
:1007D000083650F826C003F00704A7000F24BC40D9
:1007E0002CEA040C0C69BC4044EA0C0440F8264096
:1007F00004685F000326BE40F64306EA040C4C681A
:1008000004F00304BC4044EA0C0404604C6804F1A6
:10081000FF3CBCF1010F03D9112C01D0122C10D1D7
:10082000846806EA040CCC68BC4044EA0C0484608A
:10083000446824EA02024C68C4F300149C40144348
:100840004460C26816408A68BA403243C2604A684F
:1008500012F0805FABD000220192264A546C44F41F
:1008600080445464526C02F480420192019A9C08C4
:10087000A61C1E4A52F8267003F0030296000F22AF
:10088000B24027EA02071C4A90423FF45CAF02F5EF
:10089000806290421AD002F58062904218D002F530
:1008A0008062904216D002F58062904214D002F528
:1008B0008062904212D002F58062904210D002F520
:1008C000806290423FF43DAF08223DE701223BE7C2
:1008D000022239E7032237E7042235E7052233E70E
:1008E000062231E702B0F0BC704770470038014083
:1008F000003C0140003802400000024003691942F8
:1009000001D1002070470120704712B909048161AC
:1009100070478161704743695940416170470000E9
:1009200008B5054B5B69034200D108BD024B586115
:1009300003F092FDF9E700BF003C0140F8B50668FE
:10094000346A04F00F07C4F34343C4F30A14022BC0
:100950002ED16CB307EB8702D3000344596C39B333
:1009600005462246304602F04BF8BA003A44D3001E
:100970002B445A6C22445A64DA6C2244DA6406EB43
:100980004713D3F810150B4A0A408AB1D3F8002553
:1009900022F0804242F00042C3F80025BB00D91982
:1009A000CA002A4492F8503083F0010382F8503094
:1009B000F8BD00BF0000F81FF0B585B09DF82860B5
:1009C0009DF82C70BDF830C090F89042012C2AD0D0
:1009D0000546012085F89002880000EB010E4FEAE1
:1009E000CE042C4484F83830A4F840C084F8391080
:1009F00084F83F7002F07F0E84F83AE04FEAD21E8E
:100A000084F83BE00844C4002C4484F83C60CDF8F2
:100A100008C001970096286802F00BF9002385F8BA
:100A2000903205B0F0BD0220FBE790F89032012B28
:100A30000BD010B50446012380F89032006802F014
:100A4000B2FA002084F8900210BD022070470028FE
:100A500037D0F0B58BB00646032380F8913203F00F
:100A6000D9FF306801F076FF344654F810CB6D465C
:100A70000FCC0FC50FCC0FC594E8030085E8030029
:100A8000371D97E80E00604601F020FF0121306815
:100A900001F066FF344654F810CB6D460FCC0FC5FD
:100AA0000FCC0FC594E8030085E8030097E80E001B
:100AB000604601F0DFFF012386F8913200200BB081
:100AC000F0BD01207047F8B59DF81870BDF82060A2
:100AD0009DF824C08D000D44EC00044484F83B20B4
:100AE00084F83F306FB901EB8105EC000444032525
:100AF00084F84250032B00F2B380DFE803F00AAA27
:100B00003E7B01EB8105EC000444022584F8425051
:100B1000F0E7012F40F0A480002A40F0A18036B910
:100B200001EB8102D3000344012283F8512001EB41
:100B30008102D300034493F85130B3B901EB810231
:100B4000D3000344002283F8422001EB8102D3004A
:100B5000034493F85C30022B00F0828001EB8102A9
:100B6000D300034483F83DC07AE001EB8102D30057
:100B70000344022283F84220E7E722BB01EB810213
:100B8000D300034493F85130ABB901EB8102D30099
:100B90000344002283F8422001EB8102D300034486
:100BA00093F85C30022B5BD001EB8102D30003444D
:100BB00083F83DC054E001EB8102D30003440222DC
:100BC00083F84220E8E701EB8102D300034493F865
:100BD00050303BB901EB8102D3000344002283F87B
:100BE00042203DE001EB8102D3000344022283F85E
:100BF000422035E0B2B901EB8102D300034493F8FF
:100C000051303BB901EB8102D3000344002283F849
:100C1000422025E001EB8102D3000344022283F845
:100C200042201DE001EB8102D300034493F85030D1
:100C30003BB901EB8102D3000344002283F8422038
:100C40000EE001EB8102D3000344022283F842202C
:100C500006E001EB8102D3000344002283F8422026
:100C60008A005418E3000344079C5C649E640024DB
:100C700083F85C40DC6483F8391083F85D401144EC
:100C8000CB0003F13801027C0144006802F042F815
:100C9000F8BD30B583B005460468D4F840340193FC
:100CA000D4F840340093009B23F02E030093019B63
:100CB00013F0020F07D0019B13F0010F25D1009B09
:100CC00043F002030093019B13F0080F10D0009B28
:100CD00043F008030093019B13F0040F31D0AB697C
:100CE000022B19D0EB68032B26D0284603F0D4FE44
:100CF000019B13F0200F03D0009B43F020030093CF
:100D0000009BC4F8403403B030BDA36923F0005306
:100D1000A36103F0C1FED2E7019B03F4C023B3F546
:100D2000802F04D00121286801F01AFFDDE702219D
:100D3000286801F015FFD8E74EF66022C4F80424B5
:100D4000D3E7D4F8403423F02E03C4F840342A68A3
:100D5000936943F000539361CAE7F8B506460D4620
:100D6000076807EB411707F5A064A36813F0040FA9
:100D700041D00423A360E36843F00203E360A36867
:100D800013F4007F6DD1A36813F0010F00F08A8087
:100D9000336963B1AB005919CA003244916C2269BE
:100DA000C2F31202891A2B44DA003244D164AA0039
:100DB0002A44D3003344012283F85D200021996541
:100DC000A26093F83F30002B57D0022B55D0032B55
:100DD0005DD1D7F8003543F00053C7F8003505EB77
:100DE0008502D3003344012283F85C202946304633
:100DF00003F05EFE4BE0A36813F0200F02D0202327
:100E0000A360BCE7A36813F0080F17D1A36813F41D
:100E1000806FB4D0E36843F00203E360006802F03F
:100E2000C2F81023A36005EB8502D30033440822E7
:100E300083F85D204FF48063A360A0E7E36843F08C
:100E40000203E36001EB8102D3000344052283F82F
:100E50005D201023A3600823A360006802F0A3F8BC
:100E60008DE7E36843F00203E3602946306802F04F
:100E70009AF84FF40073A36013E0E36843F00203B1
:100E8000E3602946306802F08EF81023A360AB00BF
:100E90005919CA00324492F8503083F0010382F8A5
:100EA0005030F8BDA36813F0020F50D0E36823F070
:100EB0000203E36005EB8502D300334493F85D3011
:100EC000012B20D0052B32D0062B01D0082B21D1AD
:100ED000AA002A44D30033449A6D511C9965032A11
:100EE0002DD9AA002A44D300334400229A65042253
:100EF00083F85C20D7F8003523F0804343F00043AB
:100F0000C7F8003506E005EB8502D3003344012223
:100F100083F85C200223A36005EB8502D3003344F1
:100F200093F85C202946304603F0C2FDB9E705EB93
:100F30008502D3003344052283F85C20EAE705EB01
:100F40008502D3003344022283F85C20D2E7A368F1
:100F500013F0800F26D1A36813F0100FA1D005EB7A
:100F60008502D300334493F83F30032B32D0AB00DB
:100F70005919CA003244032182F85D101022A26080
:100F80001D4405FA01F31E4496F83F300BB1022BC5
:100F900087D1D7F8003523F0804343F00043C7F8EA
:100FA00000357EE7E36843F00203E360AB005919C4
:100FB000CA003244916D013191652B44DA0032440C
:100FC000062382F85D302946306801F0ECFF80236B
:100FD000A36066E7E36843F00203E36029463068F4
:100FE00001F0E1FFC3E7F8B5046804EB411404F530
:100FF000A064A36813F0040F24D10E460546A3682D
:1010000013F0200F25D02023A36001EB8102D30031
:10101000034493F83D30012B1AD18F007A18D30086
:101020000344042283F85D20E36843F00203E36095
:10103000006801F0B8FFB919C8002844022380F8FD
:101040005C3005E00423A360E36843F00203E3603F
:10105000F8BDA36813F0400F4CD1A36813F4007FD0
:101060005FD1A36813F0010F66D1A36813F0080FD6
:1010700077D1A36813F0100F40F08480A36813F0B9
:10108000800F40F09580A36813F4806F40F0A1803A
:10109000A36813F0020FDBD0E36823F00203E360E0
:1010A00001EB8102D300034493F85D30012B00F083
:1010B000A480032B00F0C480042B00F0C980052B12
:1010C00000F0D180062B02D0082B40F0A180B200A6
:1010D0003244D3002B449A6D511C9965032A40F287
:1010E000CA80282303FB065300229A65042283F852
:1010F0005C208DE08B005918CA000244042182F85C
:101100005D103344DA00024400239365E36843F042
:101110000203E3603146006801F045FF4023A3600D
:1011200096E7E36843F00203E360006801F03BFFE9
:101130004FF40073A3608BE78F007A18D300034449
:1011400000229A65E36843F00203E360006801F05F
:101150002AFF0123A360B919C800284480F85D3034
:1011600076E70823A360E36843F00203E3600068C6
:1011700001F019FF06EB8601C8002844052380F81A
:101180005D3065E78F007A18D300034400229A652A
:10119000E36843F00203E360006801F004FFB9195B
:1011A000C8002844032380F85D301023A3604FE774
:1011B000E36843F00203E360006801F0F4FE06EB2D
:1011C0008601CB002B44062283F85D208023A36098
:1011D0003EE7E36843F00203E360006801F0E3FEEA
:1011E0001023A3604FF48063A36006EB8601CB005D
:1011F0002B44082283F85D202AE78A000A44D300A2
:101200000344012283F85C2093F83F30022B0CD07A
:101210000223A36006EB8602D3002B4493F85C20E4
:101220003146284603F044FC12E78A000A44D30002
:10123000034493F8512082F0010283F85120E7E73C
:1012400001EB8102D3000344022283F85C20DFE734
:101250008A000A44D3000344022283F85C2000225F
:1012600083F83D20D4E701EB8102D300034405223B
:1012700083F85C20CCE7282303FB0653022283F883
:101280005C20C5E7F8B504460568284601F0D0FBA8
:10129000012800D0F8BD206801F0C6FB0028F9D075
:1012A000206801F0C1FB10F4001F03D023684FF445
:1012B00000125A61206801F0B7FB10F4801F03D0C0
:1012C00023684FF480125A61206801F0ADFB10F0E2
:1012D000806F03D023684FF080625A61206801F06C
:1012E000A3FB10F0020F02D0236802225A6120688B
:1012F00001F09AFB10F0005F25D1206801F094FB0B
:1013000010F0807F31D1206801F08EFB10F0080FC3
:101310002FD1206801F088FB10F0007F30D12068C9
:1013200001F082FB10F0100FB4D02268936923F013
:10133000100393612046FFF701FB2268936943F095
:1013400010039361A6E7D5F8403423F02E03C5F8C7
:101350004034204603F0A6FB0121206801F000FC88
:1013600023684FF000525A61C7E72046FFF791FC0F
:10137000C9E7204603F08AFB236808225A61C8E7C0
:10138000206801F001FE0746002604E0F1B2204685
:10139000FFF729FE0136A368B3420FD90123B340FA
:1013A0003B42F7D005EB4613D3F8003513F4004F5A
:1013B000ECD0F1B22046FFF7D0FCEBE723684FF00A
:1013C00000725A61ABE738B590F89032012B0ED01D
:1013D0000446012580F89052006801F0B5FA2946CC
:1013E000206801F0F7FB002084F8900238BD02204D
:1013F000FCE790F89032012B0BD010B50446012386
:1014000080F89032006801F0E9FE002084F8900234
:1014100010BD0220704708B5006801F0C1FB08BD8F
:1014200001EB8101CB00184490F85C00704701EBA0
:101430008101CB001844C06C704708B5006801F00A
:10144000F3FB08BD08B5006801F0E5FB08BD00002E
:10145000002800F0828010B5044690F83D30002B43
:1014600041D0242384F83D302268136823F001031F
:10147000136000F07DFE3A4BA3FB00239B0C226817
:1014800053606168374A914232D80133226813624F
:101490006368344A934235D85B00B0FBF3F0C0F385
:1014A0000B03032B00D804202368D861E369216A69
:1014B00022680B4313602369E16822680B43936041
:1014C0006369A16922680B43D3602268136843F003
:1014D0000103136000202064202384F83D30206342
:1014E00084F83E0010BD80F83C3003F075F9B8E791
:1014F0004FF4967202FB03F31B4AA2FB03239B09E2
:101500000133C3E7A16889B903EB4302B0FBF2F2F0
:10151000C2F30B02B2FA82F25209E2B991B903EBBB
:101520004303B0FBF3F040F40040BDE703EB83025C
:1015300002EB8202B0FBF2F2C2F30B02B2FA82F2C9
:101540005209EAE703EB830303EB8303B0FBF3F0F9
:1015500040F44040A8E70120A6E70120704700BF03
:1015600083DE1B43A0860100D34D6210704708B58F
:10157000436A9A1C426202681B88D360438D013B18
:101580009BB24385438D9BB203B108BD026853688B
:1015900023F0A0031B041B0C5360012380F841308F
:1015A000FFF7E4FFF1E7704708B50368DA68C36A3C
:1015B000991CC1621A80438E013B9BB24386438EC5
:1015C0009BB203B108BD0268536823F060031B049B
:1015D0001B0C5360012380F84130FFF7E4FFF1E773
:1015E00070470000002800F0BB8070B5044602255B
:1015F00080F841505B4B436303F018F92268D369CC
:1016000023F47B6323F00F03D36123681D622368F7
:10161000DD696369022B5BD0E368002B3ED0202696
:10162000A368202B00D87600012000F06BFE236910
:10163000B3F5007F34D0B0FBF6F000EB8000430040
:101640006269B3FBF2F30533474AA2FB0323DB08CD
:1016500003F001029B1AC3F34F0311029A1EFD2AE5
:1016600038D822690A43216813430B626268A16873
:10167000E068238B03439BB20B439BB213439BB2A3
:1016800043F400631D432368DD61236A012B2AD0E4
:1016900000206064012384F8413070BD1026BFE74C
:1016A000E36853B1B600B0FBF6F000EB80004300F6
:1016B0006269B3FBF2F30533C6E7F600B0FBF6F060
:1016C00000EB800043006269B3FBF2F30533BBE734
:1016D0000021C3E7636C43F0100363642046FFF707
:1016E0007FFF0120D9E7214B63632268204B9A4298
:1016F0001ED04FF04022D36923F47B6323F00F0305
:10170000D36122681A4B9A4214D04FF04023022230
:101710001A622268164B9A420FD04FF04022D069CD
:101720006168B1F5007F0AD0C1B94FF4807608E056
:10173000104AE0E7A3F58063E9E70E4AEFE74FF4CC
:101740008076A168E568238B2B439BB20B439BB249
:10175000334343F400630343D36199E70026F0E782
:101760000120704779170008CDCCCCCC9519000822
:10177000003800400034004010B584B004460268D0
:101780009368039390F84130DBB2042B06D094F8B1
:101790004130DBB2032B2ED004B010BD039B13F0FD
:1017A000010F03D0536813F0400F21D1039B13F0B6
:1017B000400FECD023685A6812F0200FE7D05A6827
:1017C00022F060021204120C5A6000230193236875
:1017D000DA6801929B680193019B012384F84130F0
:1017E000636C43F0020363642046FFF7F9FECEE723
:1017F000FFF7DAFEDAE7039B13F0020F04D0236849
:101800005B6813F0800F1FD1039B13F0080FC3D048
:1018100023685A6812F0200FBED05A6822F0A00246
:101820001204120C5A600023029323689B680293EF
:10183000029B012384F84130636C43F0040363642A
:101840002046FFF7CDFEA7E72046FFF790FEDBE737
:101850007047000008B5E9B9436A9A1C4262026801
:101860001B88D360438D013B9BB24385438D9BB264
:101870004BB90268536823F0A0031B041B0C536090
:10188000438E9BB203B108BD012380F84130FFF7BE
:10189000DFFFF8E7436A9A1C42621A880168134B1B
:1018A00099421ED04FF04023DA60438D013B9BB23A
:1018B0004385438D9BB2002BE5D102680B4B9A42C6
:1018C00012D04FF04022536823F0A0035360438EA0
:1018D0009BB2002BD7D1012380F84130FFF7B8FF2E
:1018E000D1E7A3F58063DFE7014AECE70038004069
:1018F0000034004008B5E9B90368DA68C36A991C86
:10190000C1621A80438E013B9BB24386438E9BB2D9
:101910004BB90268536823F060031B041B0C53602F
:10192000438D9BB203B108BD012380F84130FFF71E
:101930008FFFF8E70268154B9A4222D04FF0402300
:10194000DA68C36A991CC1621A80438E013B9BB25C
:101950004386438E9BB2002BE5D102680B4B9A4223
:1019600012D04FF04022536823F060035360438D40
:101970009BB2002BD7D1012380F84130FFF768FFDD
:10198000D1E7A3F58063DBE7014AECE700380040CC
:101990000034004010B584B0044603689A6803928E
:1019A0007C4A93425DD04FF040218A680292DA6906
:1019B00002F44072B2F5007F04D0DA6912F4407F7D
:1019C00040F08180039A12F0020F03D05B6813F09D
:1019D000800F48D1029B13F0010F09D022686D4B94
:1019E0009A4245D04FF040235B6813F0400F42D13C
:1019F000029B13F0400F09D02268664B9A423FD0F9
:101A00004FF040235A6812F0200F3CD1039B13F093
:101A1000080F24D023685A6812F0200F1FD05A688C
:101A200022F0A0021204120C5A602268594B9A420A
:101A300047D04FF04022536823F0600353600023E7
:101A4000019323689B680193019B012384F8413033
:101A5000636C43F0040363642046FFF7C1FD04B0E8
:101A600010BD4D49A1E700212046FFF7F3FEB1E785
:101A7000A3F58063B8E701212046FFF73BFFB7E7F6
:101A8000A3F58063BEE75A6822F060025A602268BC
:101A9000536823F0A0031B041B0C53600023009326
:101AA0002368DA6800929B680093009B012384F806
:101AB0004130636C43F0020363642046FFF790FDFE
:101AC000A4E7354AB7E7029B13F0020F03D04B6837
:101AD00013F0800F4FD1039B13F0010F04D0236844
:101AE0005B6813F0400F4BD1039B13F0400F1ED0E7
:101AF00023685A6812F0200F19D05A6822F0600249
:101B00001204120C5A602268224B9A423DD04FF0C8
:101B10004022536823F0A0035360012384F841302E
:101B2000636C43F0020363642046FFF759FD029B98
:101B300013F0080F93D02268164B9A4227D04FF02B
:101B400040235A6812F0200F89D05A6822F0A00270
:101B50005A602268536823F060031B041B0C536017
:101B6000012384F84130636C43F00403636420462E
:101B7000FFF736FD73E701212046FFF76BFEAAE76A
:101B800000212046FFF7B6FEAEE7034AC1E7A3F502
:101B90008063D6E70038004000340040002800F0A1
:101BA000BB8170B582B00446036813F0010F3BD0CF
:101BB000A74B9B6803F00C03042B2CD0A44B9B6811
:101BC00003F00C03082B21D06368B3F5803F4FD09E
:101BD000B3F5A02F52D09E4B1A6822F480321A60BF
:101BE0001A6822F480221A606368002B50D0FEF736
:101BF00009FD0546964B1B6813F4003F14D1FEF710
:101C000001FD401B6428F5D903208AE1904B5B68F5
:101C100013F4800FD8D08E4B1B6813F4003F03D011
:101C20006368002B00F07A81236813F0020F55D00F
:101C3000874B9B6813F00C0F3ED0854B9B6803F0DD
:101C40000C03082B33D0E368002B68D0814B0122B2
:101C50001A60FEF7D7FC05467D4B1B6813F0020F98
:101C600054D1FEF7CFFC401B0228F5D9032058E1E0
:101C7000774A136843F480331360B5E7744B1A68EE
:101C800042F480221A601A6842F480321A60ABE78C
:101C9000FEF7B8FC05466E4B1B6813F4003FC3D03B
:101CA000FEF7B0FC401B6428F5D9032039E1684BEE
:101CB0005B6813F4800FC6D1654B1B6813F0020FED
:101CC00004D0E368012B01D001202AE1604A1368A7
:101CD00023F0F803216943EAC1031360236813F07A
:101CE000080F40D0636963B35B4B01221A60FEF7B3
:101CF00089FC0546564B5B6F13F0020F33D1FEF79C
:101D000081FC401B0228F5D903200AE1504A1368E0
:101D100023F0F803216943EAC1031360DEE74D4B6A
:101D200000221A60FEF76EFC0546494B1B6813F053
:101D3000020FD3D0FEF766FC401B0228F5D9032022
:101D4000EFE0454B00221A60FEF75CFC0546404B75
:101D50005B6F13F0020F06D0FEF754FC401B022805
:101D6000F5D90320DDE0236813F0040F79D0384B58
:101D70001B6C13F0805F33D100230193344B1A6C3A
:101D800042F080521A641B6C03F080530193019B54
:101D90000125324B1B6813F4807F23D0A368012BED
:101DA00034D0052B38D02A4B1A6F22F001021A6763
:101DB0001A6F22F004021A67A368002B36D0FEF7D0
:101DC00021FC0646224B1B6F13F0020F48D1FEF791
:101DD00019FC801B41F288339842F3D90320A0E01C
:101DE0000025D6E71D4A136843F480731360FEF79D
:101DF00009FC0646194B1B6813F4807FCED1FEF711
:101E000001FC801B0228F5D903208AE0104A136FD9
:101E100043F001031367CFE70D4B1A6F42F0040242
:101E20001A671A6F42F001021A67C5E7FEF7EAFB6C
:101E30000646074B1B6F13F0020F11D0FEF7E2FBB3
:101E4000801B41F288339842F3D9032069E000BF38
:101E50000038024000004742800E474200700040B8
:101E6000E5B9A369002B5BD0304A926802F00C02FE
:101E7000082A58D0022B17D02D4B00221A60FEF7EB
:101E8000C1FB0446294B1B6813F0007F42D0FEF7CC
:101E9000B9FB001B0228F5D9032042E0234A136C4A
:101EA00023F080531364DCE7214B00221A60FEF715
:101EB000A9FB05461D4B1B6813F0007F06D0FEF7FB
:101EC000A1FB401B0228F5D903202AE0E369226A1E
:101ED0001343626A43EA8213A26A5208013A43EA50
:101EE0000243E26A43EA0263104A5360104B012244
:101EF0001A60FEF787FB04460C4B1B6813F0007F4B
:101F000006D1FEF77FFB001B0228F5D9032008E06D
:101F1000002006E0002004E001207047012000E0DE
:101F2000002002B070BD0120FBE700BF0038024076
:101F300060004742324B9B6803F00C03042B5CD0DB
:101F4000082B01D02F4870472DE9F04B2C4B5A68D5
:101F500002F03F025B6813F4800F2BD0284B5B68C4
:101F6000C3F388131E4600275C010025E41A65EBC5
:101F70000705A90141EA9461A001001B61EB05017D
:101F8000CB0043EA5073C400A01943EB07014B0296
:101F900043EAD0534402204619460023FEF718F9BD
:101FA000174B5B68C3F3014301335B00B0FBF3F0F5
:101FB000BDE8F08B124B5B68C3F388131E46002705
:101FC0005C010025E41A65EB0705A90141EA94616B
:101FD000A001001B61EB0501CB0043EA5073C40074
:101FE000A01943EB07018B0243EA90538402204679
:101FF00019460023FEF7ECF8D2E70348704700BF0C
:10200000003802400024F40000127A00002800F09A
:102010009D8070B504464F4B1B6803F00F038B4245
:1020200009D2CBB24B4A1370136803F00F038B42F3
:1020300001D0012070BD236813F0020F17D013F0F8
:10204000040F04D0444A936843F4E0539360236838
:1020500013F0080F04D0404A936843F46043936040
:102060003D4A936823F0F003A068034393600D4654
:10207000236813F0010F32D06368012B21D09A1E20
:10208000012A25D9344A126812F0020F60D0324971
:102090008A6822F0030213438B60FEF7B3FA064608
:1020A0002D4B9B6803F00C036268B3EB820F16D0D4
:1020B000FEF7A8FA801B41F288339842F0D903203A
:1020C000B8E7254A126812F4003FE0D10120B1E7D9
:1020D000214A126812F0007FD9D10120AAE71D4BD6
:1020E0001B6803F00F03AB4209D9EAB2194B1A700F
:1020F0001B6803F00F03AB4201D001209AE723686D
:1021000013F0040F06D0144A936823F4E053E168F7
:102110000B439360236813F0080F07D00E4A9368AF
:1021200023F46043216943EAC1039360FFF702FF90
:10213000094B9B68C3F30313084AD35CD840084B90
:1021400018600020FEF714FA002073E701207047A2
:1021500001206FE7003C024000380240F8550008BB
:1021600028000020014B1868704700BF280000209D
:1021700008B5FFF7F7FF044B9B68C3F38223034ABC
:10218000D35CD84008BD00BF0038024008560008A4
:1021900008B5FFF7E7FF044B9B68C3F34233034ADC
:1021A000D35CD84008BD00BF003802400856000884
:1021B00030B583B00446036813F0050F06D12368D9
:1021C00013F0020F2ED1002003B030BD494B002286
:1021D0001A60FEF717FA0546474B1B6813F0006FAD
:1021E00006D0FEF70FFA401B0228F5D90320EBE7D3
:1021F0006268A3681B0743EA82133F4AC2F884302F
:102200003C4B01221A60FEF7FDF905463A4B1B686C
:1022100013F0006FD3D1FEF7F5F9401B0228F5D972
:102220000320D1E700230193334B1A6C42F0805214
:102230001A641B6C03F080530193019B2F4A1368AF
:1022400043F480731360FEF7DDF905462B4B1B68E2
:1022500013F4807F06D1FEF7D5F9401B0228F5D98B
:102260000320B1E7244B1B6F13F4407312D0E268D4
:1022700002F440729A420DD01F4B1A6F22F4407242
:102280001F4901200860002008601A671B6F13F0C7
:10229000010F13D1E36803F44072B2F5407F1ED002
:1022A000154A936823F4F813936013490B6FE2689F
:1022B000C2F30B0213430B67002085E7FEF7A2F978
:1022C00005460D4B1B6F13F0020FE3D1FEF79AF991
:1022D000401B41F288339842F3D9032074E7064942
:1022E0008A6822F4F81223F0704323F440731343F6
:1022F0008B60DAE768004742003802400070004017
:10230000400E474201282AD1174B9B6813F4000363
:1023100003D0012B25D115487047134B5B6813F48C
:10232000800F14D0104B5B6803F03F031048B0FBE4
:10233000F3F00D4AD2F88430C3F3881300FB03F0A6
:10234000D2F88430C3F30273B0FBF3F07047064B4E
:102350005B6803F03F030748B0FBF3F0E9E70020B8
:1023600070470020704700BF003802400080BB006B
:1023700000127A000024F40000283BD010B5044677
:102380000023836290F85130002B2ED0022384F872
:1023900051302268136823F0400313606368A26819
:1023A0001343E26813432269134362691343A2692A
:1023B00002F400721343E2691343226A1343A16AD1
:1023C00022680B431360638B03F00403616A226885
:1023D0000B4353602268D36923F40063D361002068
:1023E0006065012384F8513010BD80F8503002F050
:1023F00051FACBE7012070472DE9F8430446016804
:102400000A6922F44052C36813430B610168CA6829
:1024100022F4164222F00C028368006903436069CB
:102420000343E06903431343CB6021684A6922F404
:102430004072A36913434B61E369B3F5004F60D069
:102440002368B84A934200F0148102F580629342F7
:1024500000F00F81FFF78CFE00EB800000EB8000A6
:102460006568AD00B0FBF5F5AF4FA7FB05356D090D
:102470002E01FFF77DFE00EB800000EB8000656819
:10248000AD00B0FBF5F9FFF773FE00EB800000EB49
:1024900080006568AD00B0FBF5F5A7FB05356D095B
:1024A0004FF0640808FB15952D013235A7FB053563
:1024B0006D0905F0F0053544FFF75AFE00EB80008A
:1024C00000EB80006668B600B0FBF6F6FFF750FE42
:1024D00000EB800000EB800063689B00B0FBF3F032
:1024E000A7FB0030400908FB10684FEA081808F104
:1024F0003208A7FB0837C7F3431723682F449F60B0
:102500000DE12368874A93425BD002F580629342D3
:1025100057D0FFF72DFE00EB800000EB80006568D0
:102520006D00B0FBF5F5804FA7FB05356D092E0159
:10253000FFF71EFE00EB800000EB800065686D0079
:10254000B0FBF5F9FFF714FE00EB800000EB800014
:1025500065686D00B0FBF5F5A7FB05356D094FF01B
:10256000640808FB1595ED003235A7FB05356D09AC
:102570006D0005F4F8753544FFF7FAFD00EB8000B7
:1025800000EB800066687600B0FBF6F6FFF7F0FD22
:1025900000EB800000EB800063685B00B0FBF3F3AE
:1025A000A7FB03235B0908FB13684FEAC80808F17F
:1025B0003208A7FB0837C7F3421723682F449F60F0
:1025C000ADE0FFF7E5FD00EB800000EB8000656803
:1025D0006D00B0FBF5F5544FA7FB05356D092E01D5
:1025E000FFF7D6FD00EB800000EB800065686D0012
:1025F000B0FBF5F9FFF7CCFD00EB800000EB8000AD
:1026000065686D00B0FBF5F5A7FB05356D094FF06A
:10261000640808FB1595ED003235A7FB05356D09FB
:102620006D0005F4F8753544FFF7B2FD00EB80004E
:1026300000EB800066687600B0FBF6F6FFF7A8FDB9
:1026400000EB800000EB800063685B00B0FBF3F3FD
:10265000A7FB03235B0908FB13684FEAC80808F1CE
:102660003208A7FB0837C7F3421723682F449F603F
:1026700055E0FFF78DFD00EB800000EB8000656802
:10268000AD00B0FBF5F5284FA7FB05356D092E0110
:10269000FFF77EFD00EB800000EB80006568AD0079
:1026A000B0FBF5F9FFF774FD00EB800000EB800054
:1026B0006568AD00B0FBF5F5A7FB05356D094FF07A
:1026C000640808FB15952D013235A7FB05356D090A
:1026D00005F0F0053544FFF75BFD00EB800000EBF3
:1026E00080006668B600B0FBF6F6FFF751FD00EB20
:1026F000800000EB800063689B00B0FBF3F0A7FB59
:102700000030400908FB10684FEA081808F1320849
:10271000A7FB0837C7F3431723682F449F60BDE822
:10272000F88300BF001001401F85EB512DE9F041F7
:1027300005460F4616469846069C2B681B6837EAE6
:1027400003030CBF01230023B3421DD1B4F1FF3FAB
:10275000F3D02CB1FDF756FFA0EB0800A042ECD956
:102760002A68D36823F4D073D3602A68536923F0AE
:1027700001035361202385F8393085F83A3000236E
:1027800085F83830032000E00020BDE8F08158B320
:1027900010B5044690F839300BB3242384F839304F
:1027A0002268D36823F40053D3602046FFF724FE49
:1027B0002268136923F4904313612268536923F05C
:1027C0002A0353612268D36843F40053D360002086
:1027D000E063202384F8393084F83A3010BD80F863
:1027E000383002F07FF8D8E7012070472DE9F0413A
:1027F00082B01E4690F83930DBB2202B55D104460A
:102800000D469046002955D0002A55D090F8383012
:10281000012B53D0012380F838300023C3632123D8
:1028200080F83930FDF7EEFE0746A4F82480A4F8BE
:10283000268010E000963B46002280212046FFF7CC
:1028400075FF00283CD12B882268C3F3080353602E
:102850002369C3B90235E38C9BB2B3B1E38C013B6E
:102860009BB2E384A368B3F5805FE3D000963B4658
:10287000002280212046FFF759FF18BB2A782368E1
:102880005A600135E7E70135E5E700963B4600224F
:1028900040212046FFF74AFF0346A8B9202284F8CA
:1028A0003920002284F8382000E00223184602B0C4
:1028B000BDE8F0810123F9E70123F7E70223F5E7FB
:1028C0000323F3E70323F1E70323EFE784B010B515
:1028D000044603A880E80E00089B012B20D1A36BBF
:1028E00023F48033A363E36823F4840323F04003D9
:1028F000E360E36823F44013E3600F9B012B0AD0ED
:10290000204600F099F8069B012B14D00020BDE86A
:10291000104004B07047E36843F48013E360EFE7CE
:10292000E36843F04003E360204600F085F84FF48D
:102930008033A363E7E7A36843F00603A360A368BB
:1029400043F02003A360E1E7836843F00103836061
:1029500000207047836823F00103836000207047E4
:1029600008B5C36823F0C043C360012909D019B971
:10297000C36843F08043C3603220FDF749FE002066
:1029800008BDC36843F00053C360F5E7890141F017
:102990002001016100230133054A934205D80269F1
:1029A00012F0200FF7D1002070470320704700BFBE
:1029B000400D03001023036100230133054A9342B5
:1029C00005D8026912F0100FF7D1002070470320DC
:1029D000704700BF400D030070B49DF80C4064B90F
:1029E00003339D0807E000EB023303F5805351F8F1
:1029F000046B1E600134AC42F5D3002070BC7047FC
:102A000003329208002393420CD210B400F5805494
:102A1000246841F8044B01339342F7D308465DF82C
:102A2000044B704708467047426980691040704700
:102A3000406900F001007047002301330C4A9342C3
:102A400011D80269002AF8DA036943F0010303612F
:102A500000230133064A934207D8026912F0010F9E
:102A6000F7D100207047032070470320704700BF54
:102A7000400D030084B038B5044605A880E80E0078
:102A800025460023C4F8003EA36B23F48023A363F0
:102A9000A36B23F40023A363A36B43F40013A3638A
:102AA000079B032B0ED0D4F8003423F00403C4F8A2
:102AB000003410212046FFF769FF2046FFF77AFF18
:102AC000002213E0B4F1A04FEDD0D4F8003443F06D
:102AD0000403C4F80034ECE705EB42134FF0FF3178
:102AE000C3F808150021C3F80C150132069B934268
:102AF000F2D80121204600F06DF8C820FDF788FDCE
:102B00000023A3614FF0FF336361B4F1A04F17D0EE
:102B10004FF40073636203F18073A3620D4BC4F83A
:102B20000031089B1BB9A36943F01003A361A2699C
:102B3000094B1343A3610020BDE8384004B070473F
:102B40008023636203F5C003A362044BC4F8003121
:102B5000E7E700BF0003E000080020A3E00040001A
:102B600010B400F58064D0F8003423F00303C0F8FB
:102B70000034D0F8003401F003021343C0F80034ED
:102B8000012905D0022907D000205DF8044B7047C9
:102B90004BF680336360F7E741F270736360F3E7ED
:102BA00010B582B00446D0F840340193019B23F065
:102BB0002E030193019B43F48073C0F840340A2034
:102BC000FDF726FD019B23F48073C4F840340020F8
:102BD00002B010BD82B0D0F840340193019B23F0C5
:102BE0002E030193019B13F4805F01D101290CD0C6
:102BF000019B13F4805F05D021B9019B23F480531E
:102C0000C0F84034002002B07047019B43F4805369
:102C1000C0F84034ECE782B0D0F84034019301981A
:102C2000C0F3414002B0704700F58060806880B218
:102C30007047F0B49DF8144000EB411505F5A0660F
:102C40004FF0FF37B760032C1CD8DFE804F0024DCB
:102C5000021540F29D47F76012F0800F07D1B0F1E6
:102C6000A04F0FD0F76847F06007F7600AE0F768F9
:102C700047F48077F76005E040F29D67F76012F057
:102C8000800F2CD1D0F81864012707FA01F13143E5
:102C9000C0F81814816941F0007181619B0503F04F
:102CA000FE53D10201F4F0410B4352B202F4004250
:102CB00013439DF81020022A21D000221343A204BE
:102CC00002F440221343BDF81820C2F30A02134352
:102CD000C5F80035032C15D00020F0BC7047F7680C
:102CE00047F48077F760CDE740F22527F76012F0D0
:102CF000800FC7D0F76847F4C077F760C2E74FF49A
:102D00000032DBE7D5F8003543F00053C5F8003555
:102D1000E2E7000080B58AB002AFF860B960134600
:102D2000FB7100237B7700237B830023FB834FF41D
:102D300080733B8300237B61FB68B3F1A04F2AD0F3
:102D4000BB681B79002B26D1FB79002B0BD1BB680C
:102D50005B79012B07D1BB685B781946F86800F0F6
:102D600003FA002309E1FB79012B14D1BB685B78DE
:102D70005A01FB68134403F5A063DB68BA68527814
:102D80005101FA680A4402F5A06223F06003D3609F
:102D9000BB6800225A71BB681B69002B19D0BB6845
:102DA0001B69BA6812891344013BBA681289B3FBE4
:102DB000F2F3FB83FA8B3B8B9A420CD93B8BFB8360
:102DC000FB8BBA68128902FB03F31A46BB681A61CF
:102DD00001E00123FB83BB68DB78002B07D0FB8B72
:102DE000BA68128902FB03F31A46BB681A61BB6812
:102DF0001B69C3F31202FB8BDB041946614B0B40CA
:102E00001A43BB689B7A5B0703F0C043B9684978F3
:102E10004801F968014401F5A06113430B61FB7996
:102E2000002B0AD0BB68D968BB685B785A01FB6885
:102E3000134403F5A0630A465A61FB6803F58063F7
:102E40009B6803F00103002B0CBF01230023DBB2BE
:102E50007B77BB685B785A01FB68134403F5A0637A
:102E60001B68BA6852785101FA680A4402F5A062F8
:102E700023F000531360BB685B785A01FB6813446E
:102E800003F5A0631B687A7F52071046BA68527830
:102E90005101FA680A4402F5A06203431360BB685B
:102EA0005B785A01FB68134403F5A0631B687B61E0
:102EB0007B6923F080437B617B6943F000437B6146
:102EC000BB685B785A01FB68134403F5A0631A469C
:102ED0007B691360FB79002B4ED1BB68DB78002B3C
:102EE0004AD1BB681B69002B46D0BB68DB79032B3A
:102EF00030D801A252F823F0092F00082D2F000826
:102F0000092F00082D2F0008BB681B6903339B089D
:102F10007B837A8BFB68DB6A9BB29A421CD9FB6885
:102F20009B6943F02002FB689A6115E0BB681B694E
:102F300003339B087B837A8BFB6803F580631B69F3
:102F40009BB29A420AD9FB689B6943F08062FB6896
:102F50009A6103E000BF02E000BF00E000BFBB6871
:102F6000D968BB685A78BB681B6998B20023009384
:102F70000346F868FFF730FD002318462037BD46AA
:102F800080BD00BF0000F81F80B483B000AF786040
:102F90007B6803F580635B699BB218460C37BD46BE
:102FA0005DF8047B704780B485B000AF78600B4655
:102FB000FB700023FB60FB785A017B68134403F528
:102FC000A0631B689B0C03F00303002B0BD0FB7862
:102FD0005A017B68134403F5A0631B689B0C03F044
:102FE0000303022B5CD1FB785A017B68134403F581
:102FF000A0631B68FA7851017A680A4402F5A0625E
:1030000043F0804313607B68DB6A03F47F03002B8B
:1030100033D1FB785A017B68134403F5A0631B6826
:10302000FA7851017A680A4402F5A06223F000435D
:103030001360FB785A017B68134403F5A0631B6897
:10304000FA7851017A680A4402F5A06243F000431D
:103050001360FB680133FB60FB68B3F57A7F1DD812
:10306000FB785A017B68134403F5A0631B6803F0E7
:103070000043B3F1004FECD06FE0FB785A017B685E
:10308000134403F5A0631B68FA7851017A680A4477
:1030900002F5A06243F0004313605EE000BF5CE015
:1030A000FB785A017B68134403F5A0631B68FA7828
:1030B00051017A680A4402F5A06243F0804313602C
:1030C0007B6803F580631B699BB2002B33D1FB78CF
:1030D0005A017B68134403F5A0631B68FA78510119
:1030E0007A680A4402F5A06223F000431360FB787B
:1030F0005A017B68134403F5A0631B68FA785101F9
:103100007A680A4402F5A06243F000431360FB684A
:103110000133FB60FB68B3F57A7F1DD8FB785A0159
:103120007B68134403F5A0631B6803F00043B3F10D
:10313000004FECD011E0FB785A017B68134403F593
:10314000A0631B68FA7851017A680A4402F5A0620C
:1031500043F00043136000E000BF0023184614371B
:10316000BD465DF8047B704780B485B000AF7860E1
:103170000B46FB700123FB730023BB60FB7BDB046E
:103180001A46154B1340FA7851017A680A4402F541
:10319000A06243F000431361FB785A017B6813443B
:1031A00003F5A0631B68BB60BB6823F08043BB6072
:1031B000BB6843F00043BB60FB785A017B68134453
:1031C00003F5A0631A46BB68136000231846143742
:1031D000BD465DF8047B70470000F81F80B586B0DF
:1031E00000AF786000233B617868FFF7B3FB1021E4
:1031F0007868FFF7CBFB7868FFF7DCFB0023FB75F3
:103200001FE0FB7D5A017B68134403F5A0631B6834
:10321000FB60FB6843F08043FB60FB6823F00043E6
:10322000FB60FB6823F40043FB60FB7D5A017B6875
:10323000134403F5A0631A46FB681360FB7D01335A
:10324000FB75FB7D0F2BDCD90023FB7534E0FB7D88
:103250005A017B68134403F5A0631B68FB60FB689D
:1032600043F08043FB60FB6843F00043FB60FB6876
:1032700023F40043FB60FB7D5A017B68134403F594
:10328000A0631A46FB6813603B6901333B613B69ED
:10329000B3F57A7F0CD8FB7D5A017B68134403F5A4
:1032A000A0631B6803F00043B3F1004FECD000E0D3
:1032B00000BFFB7D0133FB75FB7D0F2BC7D97B68FE
:1032C00003F580631A464FF0FF3353617B684FF07C
:1032D000FF325A617868FFF737FB0023184618372A
:1032E000BD4680BD0020704708B52122027420220F
:1032F00042740022428282820722C28200F0F5FDDF
:1033000008BD08B5A1220274212242740022428223
:1033100082820722C28200F0E8FD08BD38B504466B
:10332000D0F87433D9694031FFF7EBFF054620B977
:10333000D4F8C433022120469847284638BD38B512
:103340000546D0F87433DC69217879B9217BB1B9AD
:10335000617BF1B9D5F87433D86928B101F0ECFC80
:10336000D5F874330022DA61002038BD00F0F9FE90
:103370002178284600F00CFF00232370E6E728465A
:1033800000F0EFFE217B284600F002FF00232373AC
:10339000DEE7284600F0E5FE617B284600F0F8FEF7
:1033A00000236373D6E770B584B00446012302227C
:1033B000114600F0A2FAFF2800F0A180064601465F
:1033C000204600F090FAD4F87453502001F0ACFC81
:1033D000E861D4F87433DD691A2303FB064393F8DC
:1033E000483313F0800F72D16978204600F0BEFE9A
:1033F0000146287094F81C336A786889029003208B
:10340000019094F81D030090204600F09AFE0022DF
:103410002978204601F010FC00231A460A21204694
:1034200000F06BFAFF286CD01A2303FB004393F8DB
:10343000483313F0800F52D1AB731A2303FB0043C0
:10344000B3F84A332B831A2303FB004393F850331A
:1034500013F0800F4BD1AB731A2303FB0040B0F87D
:1034600052332B83A97B204600F080FE6873E97BF2
:10347000204600F07BFE287394F81C33AA7B697BFE
:10348000288B02900226019694F81D030090204696
:1034900000F057FE94F81C33EA7B297B688B02907E
:1034A000019694F81D030090204600F04AFE002685
:1034B00085F84C603246697B204601F0BDFB324600
:1034C000297B204601F0B8FB304604B070BD6B701C
:1034D0001A2303FB0646B6F84A336B8184E7EB7385
:1034E0001A2303FB0043B3F84A336B83ABE7EB7358
:1034F0001A2303FB0040B0F852336B83B2E702207B
:10350000E3E70220E1E7704730B583B00546D0F825
:103510007433DC6994F84D30012B03D0022B19D0A1
:1035200003B030BD606A228B90420AD9637BE169A7
:1035300001200090284600F0CBFD022384F84D3096
:10354000EEE7637BE1690122009282B2284600F037
:10355000BFFDF2E7617B01F05BFB012805D002288B
:10356000DED1012384F84D30DAE7636A228B93427F
:103570000AD99B1A6362E3691A44E261636A33B150
:10358000012384F84D30CBE700236362F6E7002384
:1035900084F84D302846FFF7B6FFC1E7704738B5CD
:1035A0000546D0F87433DC6994F84E30032B02D012
:1035B000042B09D038BD237B628B216A00F09EFD6D
:1035C000042384F84E30F5E7217B01F021FB01282C
:1035D000F0D1217B284601F0D3FA80B2A36A83425E
:1035E00002D0628B824206D3002384F84E302846F4
:1035F000FFF7D4FFDEE71B1AA362236A1844206298
:10360000032384F84E30D5E7704738B50546D0F827
:103610007433DC6994F84C30042B04D8DFE803F0F1
:103620004C05163C4300012347E0A16CFFF75CFE0C
:10363000034630B1012840D0042384F84C300123E4
:103640003BE0022384F84C30012336E004F14001D2
:10365000FFF757FE0346C0B9002384F84C30636C73
:1036600023F07F42A16C4B6823F07F439A4201D044
:10367000012322E0226C0B689A4201D001231CE056
:103680002846FFF7C1FF012317E0012815D00423C6
:1036900084F84C30012310E0FFF736FF2846FFF78F
:1036A0007EFF012309E0002100F0C9FC38B90023A6
:1036B00084F84C30012300E00023184638BD012374
:1036C000FBE7002306E003F1DE0200EB82020021AB
:1036D000516001330E2BF6D9002304E0C2180021FB
:1036E00082F81C110133B3F5007FF7D30023037078
:1036F000437001228270C0F8B83302764021817194
:10370000437680F81C3380F81D231846704708B5AF
:103710000378DBB20A2B00D008BDD0F87433002B3D
:10372000FAD09B699847F7E770B584B004464378B0
:10373000072B00F2A480DFE803F0042C355E6770ED
:103740008192082100F00FFC18B10125284604B031
:1037500070BD94F82723A2710125657094F81C337D
:10376000217902920026019694F81D23009280226E
:10377000204600F0E6FC94F81C336179A2790292AD
:10378000019694F81D2300923246204600F0D9FCA1
:10379000DCE7122100F0E7FB002872D102236370FE
:1037A0000125D3E7012100F028FC08B10125CDE770
:1037B000022001F05AFA012584F81C530323637098
:1037C0002179A37902930026019694F81D33009382
:1037D0002B468022204600F0B4FC94F81C3361791B
:1037E000A2790292019694F81D2300923246204657
:1037F00000F0A7FCAAE7092100F0CEFB002842D187
:10380000042363700125A1E7B0F8341300F0C4FB72
:10381000D8BB05236370012598E790F82E1319B9DA
:1038200006234370012591E7FF2300F58E7200F017
:10383000CCFB60BB06236370012587E790F82F134C
:1038400019B907234370012580E7FF2300F58E7225
:1038500000F0BBFBE8B907236370012576E790F819
:10386000301309B9002571E7FF2300F58E7200F0CF
:10387000ACFB054600283FF469AF012566E701254A
:1038800064E7012562E7012560E701255EE7012580
:103890005CE701255AE798B138B504460D4680F833
:1038A000BC230023C0F87433C0F87833FFF709FF56
:1038B0000DB1C4F8C453204601F0FCF8002038BD17
:1038C000022070470A4651B1D0F878334BB9591CE1
:1038D000C0F87813DC3340F8232000207047022022
:1038E00070470220704790F836338B4203D980F836
:1038F0001F13002070470220704770B400240AE0B4
:103900001A2505FB060696F843539D4219D0FF2B56
:1039100017D0013464B2012C15DC26461A2505FBAC
:10392000040595F841538D4201D0FF29F1D11A25A4
:1039300005FB060595F842539542E1D0FF2AE8D1F0
:10394000DEE7E0B200E0FF2070BC704710B504462F
:1039500001F0DEF80121204601F060F9002010BDE1
:1039600030B587B0044602238DF817300378DBB2F8
:103970000A2B43D8DFE803F0064213B042459856BD
:103980005F68A90090F81E33002B37D00123037025
:10399000C82001F06AF9204601F0E4F82EE0642026
:1039A00001F063F9204601F0CFF884F81D030523E8
:1039B00023700021204600F0D9FB60718021204651
:1039C00000F0D4FB0146207194F81C33A2790292D6
:1039D0000025019594F81D2300928022204600F0D6
:1039E000B0FB94F81C336179A2790292019594F8A6
:1039F0001D2300922A46204600F0A3FB002007B0BA
:103A000030BDFFF791FE0028F8D1002384F81F3362
:103A100094F83133012B02D007232370EEE70823FB
:103A20002370EBE7D0F8C433002BE7D0012198478F
:103A300008232370E2E790F8371300F0EFFA00282C
:103A4000DCD109232370D9E7D0F87833002BD5D007
:103A50000023C0F8743373B1D4F874330BB39B688C
:103A600020469847D0B906232370D4F8C4330321E5
:103A700020469847C2E703F1DC0254F8222011796E
:103A800094F84123914202D00133DBB2E3E703F122
:103A9000DC0254F82220C4F87423F5E70C232370C9
:103AA000ACE70C232370A9E7D0F8743353B11B693A
:103AB00098478DF817009DF81730002B9ED10A23E8
:103AC00023709BE70C23037098E7D0F87433002B26
:103AD00094D05B69984791E7FFF7F3FDD4F874330E
:103AE000002B8BD0DB68204698470023C4F8743342
:103AF00084E7C0F8B813704708B5D0F8B83301337D
:103B0000C0F8B833FFF703FE08BD08B503784BB91A
:103B1000012380F81E33D0F8C4330BB10421984739
:103B2000002008BD0378DBB2012BF9D1022303701A
:103B3000F6E710B5044600F0F9FF2179204600F0C1
:103B400027FB6179204600F023FB002384F81E3315
:103B5000D4F8C43313B1052120469847204600F01D
:103B6000D7FF03232370002010BD10B40B7803701F
:103B70004B7843708B78CC7803EB042343800B792C
:103B800003714B7943718B798371CB79C371082AA7
:103B900016D90B7A4A7A03EB022303818B7ACA7A0D
:103BA00003EB022343810B7B4A7B03EB02238381DC
:103BB0008B7B8373CB7BC3730B7C03744B7C437411
:103BC0005DF8044B70470B7803704B7843708B782B
:103BD0008370CB78C3700B7903714B7943718B7908
:103BE0008371CB79C3710B7A037270470B780370C2
:103BF0004B7843708B788370CB78C3700B794A799C
:103C000003EB022383808B79837170474378032B06
:103C100000D070470378023B9A42A8BF1A4692B27E
:103C2000002393420DD210B4C418A47801F8014BBC
:103C300002339BB29342F7D300230B705DF8044B21
:103C4000704700230B70704730B583B00446037E85
:103C5000013B0A2B00F2D880DFE803F00610354163
:103C600054627E8A9DABC200427900F1100100F0DF
:103C7000F8F902232376012003B030BD417900F02A
:103C8000C7FF012803D0042819D00120F4E7237CC2
:103C9000E28A4AB113F0800F03D105232376012075
:103CA000EAE703232376E7E713F0800F03D1072326
:103CB00023760120E0E7092323760120DCE70B23AC
:103CC00023760120D8E7D0F8B833C38103798289FD
:103CD000816800F0EDF9042323760120CCE7017917
:103CE00000F096FF012806D0052800F08F800428F8
:103CF00004D00120C0E709232376F5E70B232376C0
:103D00000120B9E74379828901250095816800F097
:103D1000B9F9D4F8B833E381062323762846ABE714
:103D2000417900F075FF012807D0052808D0022846
:103D30000AD004280CD001209EE7072323769BE7B6
:103D40000C232376032097E705232376012093E7AE
:103D50000B23237602208FE703790022114600F01F
:103D6000A7F9D4F8B833E38108232376012083E749
:103D7000017900F04DFF012805D0042807D005285F
:103D800046D0012078E70D232376002074E70B232B
:103D90002376012070E74379012500950022114622
:103DA00000F070F9D4F8B833E3810A23237628466B
:103DB00062E7417900F02CFF012805D0022807D0E6
:103DC000042809D0012057E70D232376002053E76C
:103DD0000923237601204FE70B23237601204BE7AD
:103DE000437E0133DBB24376022B07D9D0F8C433CC
:103DF000062198470023637602203DE700F096FEF7
:103E000001202076A07037E7012035E7032033E753
:103E1000032031E703780A8813440B8003781844A1
:103E200070472DE9F04383B00C460B7803704B7854
:103E300043708B78C97803EB0123438023790371A6
:103E400063794371A3798371E379C371237A037230
:103E5000092A47D905460923ADF806300026012E68
:103E600040DC6A88BDF806309A423BD90DF1060164
:103E70002046FFF7CFFF04464378042BEFD1B1462D
:103E80001A2000FB06F00830284421460230FFF7D4
:103E90009AFE0027B8461A2303FB09539B7B9F42D7
:103EA0001DDA6A88BDF806309A4218D90DF106016C
:103EB0002046FFF7AFFF04464378052BEAD108F10F
:103EC00001081A2000FB09F000EBC8000830284464
:103ED00021460430FFF78AFE01377FB2DAE7013668
:103EE00076B2BCE703B0BDE8F0838378012B03D042
:103EF000022B09D0012305E0816082810123037632
:103F0000022282701846704710B50446FFF79CFEE7
:103F1000034620B1022806D10122A27003E001224B
:103F2000A27000222276184610BD38B5BDF8105098
:103F30008478012C04D02A461946FFF7D6FF38BDF5
:103F400061F07F04047406214174428202F47F44CC
:103F5000B4F5407F03D000228282C582EBE740F2B5
:103F600009428282F9E7F0B583B0044600F58E7508
:103F70000E4600912B464FF480720021FFF7D5FFCB
:103F8000074610B1384603B0F0BD3246294604F565
:103F90004870FFF7EAFDF5E7F0B583B004460E463A
:103FA00000F11C0500912B464FF400720021FFF731
:103FB000BCFF074610B1384603B0F0BD3246294673
:103FC00004F23230FFF72DFFF5E7F0B583B0174666
:103FD0001D4600F58E740093234641F44072002183
:103FE000FFF7A3FF064610B1304603B0F0BD2A46E6
:103FF00039462046FFF70AFEF6E708B58378012B1D
:1040000004D000221146FFF770FF08BD002303749F
:104010000522427441828382C382F2E708B5837825
:10402000012B04D000221146FFF75FFF08BD0023DB
:1040300003740922427441828382C382F2E708B585
:104040008378012B04D000221146FFF74EFF08BDF4
:104050000223037401234374002343828182C382B9
:10406000F1E730B585B01546002403940823029388
:104070000191009423462246294600F0AEFD2046D9
:1040800005B030BD30B585B00C4619469DF82030DE
:1040900090F81D5305B1002303930292019401236C
:1040A000009300231A4600F098FD002005B030BDB3
:1040B00030B585B01D46002403940292019101227F
:1040C00000922346294600F088FD204605B030BD09
:1040D00030B585B00C4619469DF8203090F81D5338
:1040E00005B100230393029201940123009302235C
:1040F000002200F072FD002005B030BD30B585B063
:104100001D46002403940292019101220092022391
:10411000294600F062FD204605B030BD00230A2B81
:104120000CD803F1DE0200EB8202526812F4004F59
:1041300002D00133DBB2F2E798B270474FF6FF705E
:10414000704710B584B0BDF8204002949DF81C4023
:1041500001949DF81840009400F018FD002004B070
:1041600010BD08B500F02BFD002008BD38B5044691
:104170000D46FFF7D3FF4FF6FF73984206D045F484
:10418000004500F1DE0304EB83046560C0B238BD76
:104190000A2906D8DE3100EB81014B68C3F30E0318
:1041A0004B600020704700002DE9F0438DB00024E3
:1041B0000194584B1A6B42F010021A631A6B02F00A
:1041C00010020192019A02941A6B42F004021A63DF
:1041D0001A6B02F004020292029A03941A6B42F0E4
:1041E00080021A631A6B02F080020392039A04940D
:1041F0001A6B42F001021A631A6B02F00102049278
:10420000049A05941A6B42F002021A631A6B02F0C8
:1042100002020592059A06941A6B42F008021A638C
:104220001B6B03F008030693069BDFF8FC90224605
:1042300008214846FCF769FB374F012211463846F2
:10424000FCF763FB354E22464FF210213046FCF757
:104250005CFB4FF00808CDF81C80012508950994F7
:104260000A9407A94846FCF765FA0795089509944A
:104270000A9407A93846FCF75DFACDF81C804FF088
:104280000209CDF8209009940A944FF00508CDF862
:104290002C8007A93846FCF74DFA0795204B089368
:1042A000099407A91F48FCF745FA042307930894CB
:1042B0000994A7F5806707A93846FCF73BFA4FF445
:1042C00080630793CDF8209009940A94CDF82C8050
:1042D00007A93846FCF72EFA4FF490730793089419
:1042E000099407A93046FCF725FA4FF210230793EB
:1042F000089509940A9407A93046FCF71BFA224650
:1043000021460620FCF7AAF90620FCF7DBF90DB0E0
:10431000BDE8F0830038024000080240000C024073
:1043200000001110000002400010024082B00A4B51
:104330001B680A4AA2FB03239B0C00FB03F00190BD
:10434000074B5B680093064B5B68009A9B1A019AC7
:104350009342F8D302B070472800002083DE1B434D
:10436000001000E030B583B000248DF807400094C1
:10437000144D01224FF400712846FCF7C6FA0220C2
:10438000FFF7D4FF22464FF400712846FCF7BDFA30
:104390000220FFF7CBFF0EE0009B013300930120CA
:1043A0008DF80700FFF7C2FF4FF480710548FCF756
:1043B000A5FA0128F0D09DF80730002BF4D0009822
:1043C00003B030BD000C024038B51E4C4FF4004124
:1043D0002046FCF7A0FA41F28830FCF719F94FF4B7
:1043E00080412046FCF797FA0024254606E0FFF7B7
:1043F000B9FF0544FA20FCF70BF90134132CF6DD64
:10440000114BA3FB05352D09C5EB0513DA000F4B46
:10441000A3FB021252090E490A6005EB8505C5EBA4
:104420000515A3FB05235B090A4A1360054C4FF4ED
:1044300080412046FCF76FFA4FF400412046FCF71C
:104440006AFA38BD000C0240CDCCCCCC1F85EB51B4
:10445000C0000020F801002008B5FFF7B5FF08BD37
:10446000FEE7000008B50C480C4B03600C4B4360A2
:1044700000238360C3604FF4804202614361836123
:10448000C3610362FCF7E4FF00B908BD40F23B11D1
:104490000448FFF7E5FF00BFC400002000540040BF
:1044A000A08601001456000808B50C480C4B0360A8
:1044B0004FF40072426000238360C3600261094AC6
:1044C00042618361C3610362FDF78CF800B908BDE6
:1044D00040F24F110448FFF7C3FF00BFB0010020B6
:1044E000003C0040007701001456000808B50E4853
:1044F0000E4B03604FF48273436000238360C360FC
:10450000036143614FF400728261C36103624362DD
:1045100083620A23C362FDF72FFF00B908BD40F292
:1045200067110348FFF79CFF18010020003001408D
:104530001456000808B50B480B4B03604FF4E133E9
:10454000436000238360C36003610C224261836186
:10455000C361FEF71CF900B908BD4FF4BD710348F3
:10456000FFF77EFF70010020004400401456000851
:1045700000B599B000210191344B1A6C42F0805281
:104580001A641B6C03F080530193019B0291304B22
:104590001A6842F480421A601B6803F48043029355
:1045A000029B01230C934FF480330D93022312934B
:1045B0004FF480021392082214924FF4A8721592BD
:1045C0001693072317930CA8FDF7E8FA70BB0F2387
:1045D000079302230893002309934FF4A0530A93EF
:1045E0004FF480530B93052107A8FDF70FFD10BB77
:1045F00001230393C02304930223059303A8FDF72B
:10460000D7FDE8B9FDF7AEFD124BA3FB00308009E2
:10461000FCF764F80420FCF777F8002211464FF00D
:10462000FF30FCF71BF819B05DF804FB40F20711EE
:104630000948FFF715FF40F215110748FFF710FF73
:1046400040F21D110448FFF70BFF00BF0038024085
:1046500000700040D34D62101456000830B59BB076
:10466000FBF7AAFFFFF784FFFFF79EFDFFF7FAFEB7
:10467000FFF71AFFFFF73AFF00F0AEF9FFF75AFF16
:104680002A4C00224FF480512046FCF73EF90022CC
:104690004FF400412046FCF738F900224FF48041E6
:1046A0002046FCF732F900224FF400512046FCF777
:1046B0002CF9FFF789FE00250EE01C4C4FF48051C9
:1046C0002046FCF728F9FA20FBF7A2FF4FF48051AF
:1046D0002046FCF720F90135154B1B88ADF8043056
:1046E000622200210DF1060000F02EFB00F08AF995
:1046F000FFF738FE0F4B1B688342DED30E4B1B685F
:104700008342DAD8FA20FBF783FF002DE4D0AA0811
:1047100001320A4901A800F0D7FB3223642201A923
:104720000748FEF763F80025D6E700BF000C0240FB
:1047300094550008C0000020F8010020245600080D
:104740007001002010B582B000240094214B5A6CF7
:1047500042F480425A645A6C02F480420092009AF9
:1047600001941A6C42F080521A641B6C03F080535F
:104770000193019B0720FBF75FFF224621466FF064
:104780000B00FBF76BFF224621466FF00A00FBF798
:1047900065FF224621466FF00900FBF75FFF2246C6
:1047A00021466FF00400FBF759FF224621466FF0C7
:1047B0000300FBF753FF224621466FF00100FBF791
:1047C0004DFF224621464FF0FF30FBF747FF02B076
:1047D00010BD00BF003802400268114B9A4200D061
:1047E000704710B586B04FF41073019312230293F3
:1047F0000123039300240494042305930DEB030188
:104800000848FBF797FF0094074B1A6C42F400121C
:104810001A641B6C03F400130093009B06B010BDD8
:104820000054004000040240003802400268164B69
:104830009A4200D0704770B586B00024009403F50A
:10484000FE331A6C42F400421A641B6C03F40043FA
:104850000093009B10230193022602960394049474
:104860000625059501A90948FBF764FF4FF4A453F9
:104870000193029603940494059501A90448FBF75B
:1048800059FF06B070BD00BF003C00400000024070
:10489000000802400268104B9A4200D0704700B5F1
:1048A00087B0002300930D4A516C41F4805151644C
:1048B000526C02F480520092009AE022019202228D
:1048C0000292039304930523059301A90448FBF77F
:1048D00031FF07B05DF804FB0030014000380240B2
:1048E000000002400268114B9A4200D0704700B5A8
:1048F00087B0002300930E4B1A6C42F400321A6406
:104900001B6C03F400330093009B0C2301930223E0
:10491000029301230393032304930723059301A91F
:104920000448FBF707FF07B05DF804FB00440040B4
:10493000003802400000024008B5FBF757FEFBF7C5
:10494000F4FE08BD08B50120FBF7EAFF08BD000032
:1049500008B50248FCF796FC08BD00BFC40500205E
:104960000F49D1F8883043F47003C1F888300D4BFB
:104970001A6842F001021A60002098601A6822F05A
:10498000847222F480321A60074A5A601A6822F44C
:1049900080221A60D8604FF000638B60704700BFC0
:1049A00000ED00E0003802401030002404290CD053
:1049B000052902D0022904D07047064B03221A7041
:1049C0007047044B02221A707047024B01221A7082
:1049D000F2E700BFAC00002010B5074C01220749E8
:1049E0002046FEF758FF06492046FEF76BFF20469B
:1049F000FEF7ACFF10BD00BFFC010020AD49000870
:104A00000800002008B50248FEF7AAFF08BD00BF55
:104A1000FC0100200368B3F1A04F00D0704730B50F
:104A200087B04FF400730193002402940394154D52
:104A300001A92846FBF77EFE4FF4E05301930223C1
:104A40000293039404940A23059301A92846FBF7D3
:104A500071FE0D4B5A6B42F080025A6300945A6CFF
:104A600042F480425A645B6C03F480430093009BE1
:104A7000224621464320FBF7F1FD4320FBF722FEAF
:104A800007B030BD000002400038024008B5D0F841
:104A90009402FFF731F808BD08B5D0F89402FFF78B
:104AA00034F808BD08B5D0F89402FFF742F808BD05
:104AB0007047000090F8BC33012B01D000207047F4
:104AC00010B504461048C0F89442C4F8C0034FF033
:104AD000A0430360082383600323C36000230361B2
:104AE00002228261C361FBF7B2FF40B90648FCF7BE
:104AF000A4FC01462046FEF7FCFF002010BDE22189
:104B00000248FFF7ADFCF1E7C40500202C56000871
:104B100008B5D0F8C003FCF756FC18B1022803D042
:104B2000022008BD0020FCE70120FAE708B5D0F814
:104B3000C003FCF75EFC18B1022803D0022008BDB8
:104B40000020FCE70120FAE708B5D0F8C003FCF725
:104B500079FC18B1022803D0012008BD0020FCE731
:104B60000220FAE708B5D0F8C003FCF754FC18B1EE
:104B7000022803D0022008BD0020FCE70120FAE74C
:104B800008B5D0F8C003FCF752FC08BD10B584B0DE
:104B9000D0F8C003BDF8204002949DF81C40019459
:104BA0009DF818400094FBF707FF20B1022804D0BD
:104BB000022004B010BD0020FBE70120F9E708B592
:104BC000D0F8C003FBF731FF18B1022803D0022050
:104BD00008BD0020FCE70120FAE710B584B0D0F84A
:104BE000C0039DF824400394BDF820400294079C24
:104BF00001949DF818400094FBF765FF20B102284E
:104C000004D0022004B010BD0020FBE70120F9E72A
:104C100008B5D0F8C003FCF703FC08BD08B590F850
:104C2000BC33012B04D0C820FBF7F2FC002008BDE8
:104C3000084600F01FF8F6E710B4D0F8C03301EBD7
:104C40008104E0000446184490F83B0048B901EBA9
:104C50008101C800034483F8512000205DF8044B13
:104C60007047234483F85020F7E708B5FBF7D0FCE2
:104C700008BD000008B528B1002201210248FBF759
:104C800044FE08BD0122F8E700080240DFF834D0F6
:104C9000002103E00C4B5B58435004310B480C4B94
:104CA00042189A42F6D30B4A02E0002342F8043B32
:104CB000094B9A42F9D3FFF753FE00F011F8FFF7C2
:104CC000CDFC704700000220845600080000002040
:104CD000900000209000002060080020FEE7000007
:104CE00070B50D4E0D4CA41BA4100025A54209D192
:104CF0000B4E0C4C00F042FCA41BA4100025A54256
:104D000005D170BD56F8253098470135EEE756F8C5
:104D1000253098470135F2E77C5600087C5600089C
:104D20007C56000880560008024B0146186800F0C7
:104D300061B800BF2C000020024B0146186800F04B
:104D40000BB800BF2C00002002440346934200D160
:104D5000704703F8011BF9E738B50546002945D02F
:104D600051F8043C0C1F002BB8BFE41800F0CCF83D
:104D70001F4A1368104633B9636014602846BDE8C3
:104D8000384000F0C2B8A3420CD92168621893429F
:104D900004BF1A685B68636004BF52182260046035
:104DA000ECE713465A680AB1A242FAD919685818B2
:104DB000A0420BD120680144581882421960DDD10D
:104DC000106852685A6001441960D7E702D90C2371
:104DD0002B60D3E7206821188A4204BF116852680B
:104DE000626004BF091821605C60C7E738BD00BF7E
:104DF000B000002070B5CD1C25F0030508350C2D42
:104E000038BF0C25002D064601DBA94203D90C232F
:104E10003360002070BD00F077F8214A1468214605
:104E200091B9204C23681BB9304600F03DF8206052
:104E30002946304600F038F8431C24D10C23336057
:104E4000304600F062F8E4E70B685B1B18D40B2BCC
:104E50000FD90B60CD50CC18304600F056F804F155
:104E60000B00231D20F00700C31AD3D05A42E25092
:104E7000D0E78C424B6816BF636013600C46EBE7CB
:104E80000C464968CCE7C41C24F00304A04205D0BA
:104E9000211A304600F008F80130CFD02560DBE75A
:104EA000B0000020B400002038B5064C00230546B1
:104EB0000846236000F054FB431C02D1236803B171
:104EC0002B6038BD5C0800200EB400B59CB01DAB53
:104ED000029006906FF0004109480791049109493A
:104EE00053F8042B05910068019302A900F068F8BB
:104EF000029B00221A701CB05DF804EB03B07047EF
:104F00002C0000200802FFFF704770472DE9F04792
:104F10008E689E4282460C469046994637D88A89CA
:104F200012F4906F31D0256809696F1A6569022300
:104F300005EB450595FBF3F509F101033B449D4263
:104F400038BF1D46530530D52946FFF753FF0646A7
:104F500050B90C23CAF80030A38943F04003A38161
:104F60004FF0FF30BDE8F0873A46216900F0A6FA1D
:104F7000A38923F4906343F08003A38126616561D4
:104F80003E44ED1B2660A5604E464E4500D94E4678
:104F900032464146206800F09CFAA3689B1BA36040
:104FA00023681E4426600020DCE72A4600F0AAFAA7
:104FB00006460028E2D121695046FFF7CDFEC8E73A
:104FC0002DE9F04F9DB0804603938B891D060C465A
:104FD00016460FD50B696BB94021FFF70BFF206018
:104FE000206128B90C23C8F800304FF0FF30C7E02B
:104FF000402363610023099320238DF82930302357
:105000008DF82A304FF0010B37463D4615F8013B2D
:105010000BB1252B3ED1B7EB060A0BD053463246D7
:1050200021464046FFF772FF013000F0A480099B43
:10503000534409933B78002B00F09D8000234FF0F0
:10504000FF32CDE90523049307938DF853301A936B
:105050002F46052217F8011B4F48FBF739FA049B2E
:10506000D0B9D90644BF20228DF853201A0744BF77
:105070002B228DF853202A782A2A15D0079A2F46FA
:1050800000200A25394611F8013B303B092B4DD948
:10509000B8B10FE02F46B8E73F4A801A0BFA00F08C
:1050A000184304903D46D3E7039A111D12680391FB
:1050B000002A01DB079204E0524243F00203079208
:1050C00004933B782E2B0CD17B782A2B33D1039B76
:1050D0001A1D1B680392002BB8BF4FF0FF33023735
:1050E00005932E4D397803222846FBF7F1F938B1A4
:1050F0004023401B03FA00F0049B03430137049351
:10510000397827488DF8281006227E1CFBF7E0F935
:10511000002838D0234B13BB039B073323F007032E
:1051200008330393099B4B4409936DE705FB023257
:1051300001200F46A6E700230137059319460A25EB
:10514000384610F8012B303A092A03D9002BC8D071
:105150000591C6E705FB012101230746F0E703ABF4
:1051600000932246104B04A94046AFF30080B0F1F3
:10517000FF3F8146D6D1A3895B063FF536AF09983C
:105180001DB0BDE8F08F03AB00932246064B04A987
:10519000404600F081F8EAE740560008465600080D
:1051A0004A560008000000000D4F00082DE9F047A6
:1051B00091461F468A680B69DDF820809342B8BF8C
:1051C0001346C9F8003091F8432006460C4612B148
:1051D0000133C9F800302368990642BFD9F800307E
:1051E0000233C9F80030256815F0060507D104F12F
:1051F000190AE368D9F800209B1AAB4228DC94F81E
:1052000043302268003318BF012392062DD404F1E5
:10521000430239463046C047013020D02368E56854
:10522000D9F8002003F00603042B08BFAD1AA368C9
:1052300022690CBF25EAE57500259342C4BF9B1A7D
:10524000ED184FF000091A344D451AD1002008E03E
:105250000123524639463046C047013003D14FF052
:10526000FF30BDE8F0870135C3E7E1185A1C302054
:1052700081F84300224494F8451082F84310023329
:10528000C5E70123224639463046C0470130E6D003
:1052900009F10109D8E700002DE9F04301F1430CC1
:1052A0000C46097E85B06E291746064698460C9A2C
:1052B00000F0B38022D8632936D00AD8002900F044
:1052C000B980582900F0838004F1420584F8421027
:1052D00032E0642901D06929F6D1206813680506F7
:1052E00003F104012AD51B681160002B03DA2D227B
:1052F0005B4284F843206F480A2239E0732900F0AA
:105300009D8008D86F2920D07029DDD1236843F013
:105310002003236003E0752917D07829D4D178239E
:1053200084F84530644855E01368191D1B68116006
:1053300004F1420584F8423001238CE01B681160BF
:1053400010F0400F18BF1BB2CFE713682568181D77
:105350001060280601D51B6802E06806FBD51B8893
:1053600054486F2914BF0A220822002184F84310F0
:105370006568A560002DC0F29580216821F00401C8
:105380002160002B3DD1002D40F08E806546082A1B
:105390000BD12368DB0708D5236962689A42DEBF18
:1053A000302305F8013C05F1FF35ACEB0503236123
:1053B000CDF800803B4603AA21463046FFF7F6FEB3
:1053C00001304DD14FF0FF3005B0BDE8F0833948D2
:1053D00084F84510136821681D1D1B6815600A06B6
:1053E0000BD5CA0744BF41F0200121601BB92268D8
:1053F00022F0200222601022B7E74D0648BF9BB280
:10540000EFE76546B3FBF2F102FB1133C35C05F82D
:10541000013D0B460029F5D1B9E71368256861699C
:10542000181D106028061B6801D5196002E06A0685
:10543000FBD51980002323616546B9E71368191D60
:1054400011601D68626800212846FBF741F808B129
:10545000401B606063682361002384F84330A7E742
:1054600023692A4639463046C0470130AAD023680E
:105470009B0713D4E068039B9842B8BF1846A3E784
:1054800001234A4639463046C04701309AD001359B
:10549000E368039A9B1AAB42F2DCEBE7002504F1C8
:1054A0001909F5E7002BACD1037884F8423004F1F8
:1054B00042056CE7515600086256000810B5431EBD
:1054C0000A44914200D110BD11F8014B03F8014F7D
:1054D000F7E7884210B501EB020307D8421E994254
:1054E0000AD011F8014B02F8014FF8E78342F5D9D1
:1054F0008118D21AD34200D110BD13F8014D01F822
:10550000014DF7E7F8B5074614460E4621B9114696
:10551000BDE8F840FFF76EBC22B9FFF71DFC254639
:105520002846F8BD00F014F8A0420FD221463846B4
:10553000FFF760FC05460028F2D031462246FFF70F
:10554000BDFF31463846FFF707FCE9E73546E7E798
:1055500051F8043C181F002BBCBF0B58C0187047F3
:10556000044A05491368002B08BF0B461844106015
:1055700018467047B800002060080020F8B500BF4A
:10558000F8BC08BC9E467047F8B500BFF8BC08BC24
:045590009E4670477C
:105594000000000000000000000000000000000007
:1055A40000000000000000000000000000000000F7
:1055B40000000000000000000000000000000000E7
:1055C40000000000000000000000000000000000D7
:1055D40000000000000000000000000000000000C7
:1055E40000000000000000000000000000000000B7
:1055F400000000000000000000000000010203049D
:1056040006070809000000000102030443444300A4
:105614002E2E2F5372632F6D61696E2E630000006E
:1056240025640D0A000000002E2E2F5372632F757F
:105634007362685F636F6E662E630000232D302BE8
:105644002000686C4C00656667454647003031327F
:1056540033343536373839414243444546003031D6
:105664003233343536373839616263646566000035
:085674008CABFF7F0100000078
:04567C00B50100086C
:04568000910100088C
:105684000100000010000000105600080200000095
:10569400A73300083F3300081D3300080B36000809
:1056A400E5320008000000000024F400300000206F
:1056B40000000000000000000000000000000000E6
:1056C40000000000000000000000000000000000D6
:1056D40000000000000000000000000000000000C6
:1056E40000000000000000000000000000000000B6
:1056F40000000000000000000000000000000000A6
:105704000000000000000000000000000000000095
:0400000508004C8D16
:00000001FF
